{
  "transactions": [
    {
      "hash": "0xf5e09448ae977274fdc5b72c04777e564e335e54f6f555bef2d81dbd03d47abf",
      "transactionType": "CALL",
      "contractName": null,
      "contractAddress": "0xd6c223dde25e6ff9cede6def54af896841644291",
      "function": "mint(address,uint256)",
      "arguments": [
        "0xA2552ef4725D44ab6b227b9Ae21F78a748597905",
        "200000000000000000000"
      ],
      "transaction": {
        "from": "0xaa4c60b784e2b3e485035399bf1b1abded66a60f",
        "to": "0xd6c223dde25e6ff9cede6def54af896841644291",
        "gas": "0x186f3",
        "value": "0x0",
        "input": "0x40c10f19000000000000000000000000a2552ef4725d44ab6b227b9ae21f78a74859790500000000000000000000000000000000000000000000000ad78ebc5ac6200000",
        "nonce": "0x16",
        "chainId": "0xaa36a7"
      },
      "additionalContracts": [],
      "isFixedGasLimit": false
    }
  ],
  "receipts": [
    {
      "status": "0x1",
      "cumulativeGasUsed": "0x4e9f72",
      "logs": [
        {
          "address": "0xd6c223dde25e6ff9cede6def54af896841644291",
          "topics": [
            "0xddf252ad1be2c89b69c2b068fc378daa952ba7f163c4a11628f55a4df523b3ef",
            "0x0000000000000000000000000000000000000000000000000000000000000000",
            "0x000000000000000000000000a2552ef4725d44ab6b227b9ae21f78a748597905"
          ],
          "data": "0x00000000000000000000000000000000000000000000000ad78ebc5ac6200000",
          "blockHash": "0x29206e15b8bd583a69c79ae0c9ed6fafaa8aad8323bf3029e2cd640d0b63b991",
          "blockNumber": "0x5ce12a",
          "transactionHash": "0xf5e09448ae977274fdc5b72c04777e564e335e54f6f555bef2d81dbd03d47abf",
          "transactionIndex": "0x6f",
          "logIndex": "0x3a",
          "removed": false
        }
      ],
      "logsBloom": "0x00000000000000000080000000040000000000000000000000000000000000000000000000000000000000000000000000000000000000000000000000000000000000000000000000000008000000000000000000000000000000000040000000000000020000000000000000000800000000000000000000000010000000000000000000000000000000000000000000000000000000000000000000000000000000000000000000000000000000000000000000000000000000000000800000000002000000000000000000080000000000000000000000000000000020000000000000000000000000040000000000000000000000000000000000000000",
      "type": "0x2",
      "transactionHash": "0xf5e09448ae977274fdc5b72c04777e564e335e54f6f555bef2d81dbd03d47abf",
      "transactionIndex": "0x6f",
      "blockHash": "0x29206e15b8bd583a69c79ae0c9ed6fafaa8aad8323bf3029e2cd640d0b63b991",
      "blockNumber": "0x5ce12a",
      "gasUsed": "0x10b51",
      "effectiveGasPrice": "0x264a19c25",
      "from": "0xaa4c60b784e2b3e485035399bf1b1abded66a60f",
      "to": "0xd6c223dde25e6ff9cede6def54af896841644291",
      "contractAddress": null
    }
  ],
  "libraries": [],
  "pending": [],
  "returns": {},
  "timestamp": 1718126833,
  "chain": 11155111,
  "commit": "65eb06f"
}