{
  "transactions": [
    {
      "hash": "0x1e739355bba8e58f08d3231c17bbde4f39e0241199d0b79938d5743c097e8499",
      "transactionType": "CALL",
      "contractName": null,
      "contractAddress": "0xd6c223dde25e6ff9cede6def54af896841644291",
      "function": "mint(address,uint256)",
      "arguments": [
        "0x64678314E79781c33a4F9C347d2da58B31866875",
        "200000000000000000000"
      ],
      "transaction": {
        "from": "0xaa4c60b784e2b3e485035399bf1b1abded66a60f",
        "to": "0xd6c223dde25e6ff9cede6def54af896841644291",
        "gas": "0x114f7",
        "value": "0x0",
        "input": "0x40c10f1900000000000000000000000064678314e79781c33a4f9c347d2da58b3186687500000000000000000000000000000000000000000000000ad78ebc5ac6200000",
        "nonce": "0x18",
        "chainId": "0xaa36a7"
      },
      "additionalContracts": [],
      "isFixedGasLimit": false
    }
  ],
  "receipts": [
    {
      "status": "0x1",
      "cumulativeGasUsed": "0xaf52cc",
      "logs": [
        {
          "address": "0xd6c223dde25e6ff9cede6def54af896841644291",
          "topics": [
            "0xddf252ad1be2c89b69c2b068fc378daa952ba7f163c4a11628f55a4df523b3ef",
            "0x0000000000000000000000000000000000000000000000000000000000000000",
            "0x00000000000000000000000064678314e79781c33a4f9c347d2da58b31866875"
          ],
          "data": "0x00000000000000000000000000000000000000000000000ad78ebc5ac6200000",
          "blockHash": "0xb19273659dd30c94698313a2d0f94f35df48e780812ad022a0cb00001923923c",
          "blockNumber": "0x5ce155",
          "transactionHash": "0x1e739355bba8e58f08d3231c17bbde4f39e0241199d0b79938d5743c097e8499",
          "transactionIndex": "0x82",
          "logIndex": "0x107",
          "removed": false
        }
      ],
      "logsBloom": "0x00000000000000000000000000000000000000000000000000000000000000000000000000000000000000000000000000000000000000000000000000080020000000000000000000000008000000000002000000000000000000000040000000000000020000000000000000000800000000000000000000000010000000000000000000000000000000000000000000000000000000000000000000000000000000000000000000000000000000000000000000000000000000000000800000000002000000000000000000000000000000000000000000000000000020000000000000000000000000040000000000000000000000000000000000000000",
      "type": "0x2",
      "transactionHash": "0x1e739355bba8e58f08d3231c17bbde4f39e0241199d0b79938d5743c097e8499",
      "transactionIndex": "0x82",
      "blockHash": "0xb19273659dd30c94698313a2d0f94f35df48e780812ad022a0cb00001923923c",
      "blockNumber": "0x5ce155",
      "gasUsed": "0xc885",
      "effectiveGasPrice": "0x55b660213",
      "from": "0xaa4c60b784e2b3e485035399bf1b1abded66a60f",
      "to": "0xd6c223dde25e6ff9cede6def54af896841644291",
      "contractAddress": null
    }
  ],
  "libraries": [],
  "pending": [],
  "returns": {},
  "timestamp": 1718127373,
  "chain": 11155111,
  "commit": "65eb06f"
}