{
  "transactions": [
    {
      "hash": "0xd7d3651d43e4559dc6210376e09934270f699a708f73ff8cfd282f06cadb86f0",
      "transactionType": "CALL",
      "contractName": null,
      "contractAddress": "0x1da8e0235dce5110ccf1fa5bc645ac375e3eaea1",
      "function": "mint(address,uint256)",
      "arguments": [
        "0xA2552ef4725D44ab6b227b9Ae21F78a748597905",
        "200000000000000000000"
      ],
      "transaction": {
        "from": "0xaa4c60b784e2b3e485035399bf1b1abded66a60f",
        "to": "0x1da8e0235dce5110ccf1fa5bc645ac375e3eaea1",
        "gas": "0xc391",
        "value": "0x0",
        "input": "0x40c10f19000000000000000000000000a2552ef4725d44ab6b227b9ae21f78a74859790500000000000000000000000000000000000000000000000ad78ebc5ac6200000",
        "nonce": "0x10",
        "chainId": "0xaa36a7"
      },
      "additionalContracts": [],
      "isFixedGasLimit": false
    }
  ],
  "receipts": [
    {
      "status": "0x1",
      "cumulativeGasUsed": "0xb58860",
      "logs": [
        {
          "address": "0x1da8e0235dce5110ccf1fa5bc645ac375e3eaea1",
          "topics": [
            "0xddf252ad1be2c89b69c2b068fc378daa952ba7f163c4a11628f55a4df523b3ef",
            "0x0000000000000000000000000000000000000000000000000000000000000000",
            "0x000000000000000000000000a2552ef4725d44ab6b227b9ae21f78a748597905"
          ],
          "data": "0x00000000000000000000000000000000000000000000000ad78ebc5ac6200000",
          "blockHash": "0x1fbda6ca63ab3d758668583efc936ac3c4e9c5a10af879024c845d6222d1dc92",
          "blockNumber": "0x5ce0f4",
          "transactionHash": "0xd7d3651d43e4559dc6210376e09934270f699a708f73ff8cfd282f06cadb86f0",
          "transactionIndex": "0xbe",
          "logIndex": "0x94",
          "removed": false
        }
      ],
      "logsBloom": "0x00000000000000000080000000040000000000000000000000000000000000000000000000000000000000000000000000000000000000000000000000000000000000000000000000000008000000000000000000000000000000000000000000000000020000000000000000000800000000000000000000000010000000000000000000000000000000000000000000000000000000000000000000000000000000000000000000000000000000000000000000000000000000000000000000000002000000000000000000180000000000000000000000000000000220000000000000000000000000000000000000000000000000000000000000000020",
      "type": "0x2",
      "transactionHash": "0xd7d3651d43e4559dc6210376e09934270f699a708f73ff8cfd282f06cadb86f0",
      "transactionIndex": "0xbe",
      "blockHash": "0x1fbda6ca63ab3d758668583efc936ac3c4e9c5a10af879024c845d6222d1dc92",
      "blockNumber": "0x5ce0f4",
      "gasUsed": "0x85b9",
      "effectiveGasPrice": "0x33d0d0fda",
      "from": "0xaa4c60b784e2b3e485035399bf1b1abded66a60f",
      "to": "0x1da8e0235dce5110ccf1fa5bc645ac375e3eaea1",
      "contractAddress": null
    }
  ],
  "libraries": [],
  "pending": [],
  "returns": {},
  "timestamp": 1718126132,
  "chain": 11155111,
  "commit": "65eb06f"
}