{
  "transactions": [
    {
      "hash": "0xd52f29c84e3110fa3073d9b23a9eb7f264573615c3d0b2f9636170ce009cc664",
      "transactionType": "CALL",
      "contractName": null,
      "contractAddress": "0x43121b7008c31481e6c7e256caca2c9f88dbc8a6",
      "function": "mint(address,uint256)",
      "arguments": [
        "0xaa4C60b784E2b3E485035399bF1b1aBDeD66A60f",
        "20000000000000000000"
      ],
      "transaction": {
        "from": "0xaa4c60b784e2b3e485035399bf1b1abded66a60f",
        "to": "0x43121b7008c31481e6c7e256caca2c9f88dbc8a6",
        "gas": "0x186f3",
        "value": "0x0",
        "input": "0x40c10f19000000000000000000000000aa4c60b784e2b3e485035399bf1b1abded66a60f000000000000000000000000000000000000000000000001158e460913d00000",
        "nonce": "0xf",
        "chainId": "0xaa36a7"
      },
      "additionalContracts": [],
      "isFixedGasLimit": false
    }
  ],
  "receipts": [
    {
      "status": "0x1",
      "cumulativeGasUsed": "0x6757cf",
      "logs": [
        {
          "address": "0x43121b7008c31481e6c7e256caca2c9f88dbc8a6",
          "topics": [
            "0xddf252ad1be2c89b69c2b068fc378daa952ba7f163c4a11628f55a4df523b3ef",
            "0x0000000000000000000000000000000000000000000000000000000000000000",
            "0x000000000000000000000000aa4c60b784e2b3e485035399bf1b1abded66a60f"
          ],
          "data": "0x000000000000000000000000000000000000000000000001158e460913d00000",
          "blockHash": "0xcf8bad97773baea561c49949079e861dc214fce803983edfa48a8eaa94edd66e",
          "blockNumber": "0x5ce0d2",
          "transactionHash": "0xd52f29c84e3110fa3073d9b23a9eb7f264573615c3d0b2f9636170ce009cc664",
          "transactionIndex": "0x4a",
          "logIndex": "0x6f",
          "removed": false
        }
      ],
      "logsBloom": "0x00000000000000000000000000000000000000000000000000000000000000000000000000000000000000010000000000000020000000000000000000000000000000000000000000000008000000000000080000000000000000000000000000000000020000000000000000000800000000000020000000000010000000000000000000000000000000000000000000000000000000000000000000000000000000000000000000000000000000000000000000000000000000008000000000000002000000000000000000000008000000000000000000000000000020000000000000000000000000000000000000000000000000000000000000000000",
      "type": "0x2",
      "transactionHash": "0xd52f29c84e3110fa3073d9b23a9eb7f264573615c3d0b2f9636170ce009cc664",
      "transactionIndex": "0x4a",
      "blockHash": "0xcf8bad97773baea561c49949079e861dc214fce803983edfa48a8eaa94edd66e",
      "blockNumber": "0x5ce0d2",
      "gasUsed": "0x10b51",
      "effectiveGasPrice": "0x785751507",
      "from": "0xaa4c60b784e2b3e485035399bf1b1abded66a60f",
      "to": "0x43121b7008c31481e6c7e256caca2c9f88dbc8a6",
      "contractAddress": null
    }
  ],
  "libraries": [],
  "pending": [],
  "returns": {},
  "timestamp": 1718125685,
  "chain": 11155111,
  "commit": "65eb06f"
}