{
  "transactions": [
    {
      "hash": "0x824c8b4d4c859a47423b6d1660970f697d55fa52b6dd04195ec1418a1f02191b",
      "transactionType": "CALL",
      "contractName": null,
      "contractAddress": "0xf1896c4d0b81f41df70a722a1841b8a0789745d2",
      "function": "mint(address,uint256)",
      "arguments": [
        "0xaa4C60b784E2b3E485035399bF1b1aBDeD66A60f",
        "20000000000000000000"
      ],
      "transaction": {
        "from": "0xaa4c60b784e2b3e485035399bf1b1abded66a60f",
        "to": "0xf1896c4d0b81f41df70a722a1841b8a0789745d2",
        "gas": "0x186f3",
        "value": "0x0",
        "input": "0x40c10f19000000000000000000000000aa4c60b784e2b3e485035399bf1b1abded66a60f000000000000000000000000000000000000000000000001158e460913d00000",
        "nonce": "0x17",
        "chainId": "0xaa36a7"
      },
      "additionalContracts": [],
      "isFixedGasLimit": false
    }
  ],
  "receipts": [
    {
      "status": "0x1",
      "cumulativeGasUsed": "0xa1b188",
      "logs": [
        {
          "address": "0xf1896c4d0b81f41df70a722a1841b8a0789745d2",
          "topics": [
            "0xddf252ad1be2c89b69c2b068fc378daa952ba7f163c4a11628f55a4df523b3ef",
            "0x0000000000000000000000000000000000000000000000000000000000000000",
            "0x000000000000000000000000aa4c60b784e2b3e485035399bf1b1abded66a60f"
          ],
          "data": "0x000000000000000000000000000000000000000000000001158e460913d00000",
          "blockHash": "0x28aa1bfd3228203eefb96a704e30fb6ec257a867975b9035209bfd0d482dd7fb",
          "blockNumber": "0x5ce12c",
          "transactionHash": "0x824c8b4d4c859a47423b6d1660970f697d55fa52b6dd04195ec1418a1f02191b",
          "transactionIndex": "0xad",
          "logIndex": "0xf4",
          "removed": false
        }
      ],
      "logsBloom": "0x00000000000000000000000000000000000000000000000000000000000000000000000000000000000000100000000000000020000000000000000000000000000000000000000000000008000000000000000000000000000000000000000000000000020000000000000000000800000000000020000000000010000000000000000000000000001000000000000000000000000000000000000000000000000000020000000000000000000000000000000000000000000000008000000000000002000000000000000000000000000000000000000000000000000020000000000000000000000000000000000000000000000000000000000000000000",
      "type": "0x2",
      "transactionHash": "0x824c8b4d4c859a47423b6d1660970f697d55fa52b6dd04195ec1418a1f02191b",
      "transactionIndex": "0xad",
      "blockHash": "0x28aa1bfd3228203eefb96a704e30fb6ec257a867975b9035209bfd0d482dd7fb",
      "blockNumber": "0x5ce12c",
      "gasUsed": "0x10b51",
      "effectiveGasPrice": "0x26a64742e",
      "from": "0xaa4c60b784e2b3e485035399bf1b1abded66a60f",
      "to": "0xf1896c4d0b81f41df70a722a1841b8a0789745d2",
      "contractAddress": null
    }
  ],
  "libraries": [],
  "pending": [],
  "returns": {},
  "timestamp": 1718126860,
  "chain": 11155111,
  "commit": "65eb06f"
}