{
  "transactions": [
    {
      "hash": "0x47a76812f2ef8a1e82761666b78e95f408f4e5f3971a9e1c8db905ea8ceaa396",
      "transactionType": "CALL",
      "contractName": null,
      "contractAddress": "0xf1896c4d0b81f41df70a722a1841b8a0789745d2",
      "function": "approve(address,uint256)",
      "arguments": [
        "0x5482437bE3B8600B238DdaE9433EA6407919457C",
        "2000000000000000000"
      ],
      "transaction": {
        "from": "0xaa4c60b784e2b3e485035399bf1b1abded66a60f",
        "to": "0xf1896c4d0b81f41df70a722a1841b8a0789745d2",
        "gas": "0x108e9",
        "value": "0x0",
        "input": "0x095ea7b30000000000000000000000005482437be3b8600b238ddae9433ea6407919457c0000000000000000000000000000000000000000000000001bc16d674ec80000",
        "nonce": "0x19",
        "chainId": "0xaa36a7"
      },
      "additionalContracts": [],
      "isFixedGasLimit": false
    },
    {
      "hash": "0xc8f70f0200a991890b9e415c91782f6b1ea4a77f73ee1f96834eff3b6728dc26",
      "transactionType": "CALL",
      "contractName": null,
      "contractAddress": "0xf1896c4d0b81f41df70a722a1841b8a0789745d2",
      "function": "approve(address,uint256)",
      "arguments": [
        "0x64678314E79781c33a4F9C347d2da58B31866875",
        "2000000000000000000"
      ],
      "transaction": {
        "from": "0xaa4c60b784e2b3e485035399bf1b1abded66a60f",
        "to": "0xf1896c4d0b81f41df70a722a1841b8a0789745d2",
        "gas": "0x108e9",
        "value": "0x0",
        "input": "0x095ea7b300000000000000000000000064678314e79781c33a4f9c347d2da58b318668750000000000000000000000000000000000000000000000001bc16d674ec80000",
        "nonce": "0x1a",
        "chainId": "0xaa36a7"
      },
      "additionalContracts": [],
      "isFixedGasLimit": false
    },
    {
      "hash": "0xd7f002ef1df82fc8f3ab9039707fd63e3d5096c19fc009d44beac79c086397ce",
      "transactionType": "CALL",
      "contractName": null,
      "contractAddress": "0x5482437be3b8600b238ddae9433ea6407919457c",
      "function": "setRecipients(address[])",
      "arguments": [
        "[0x70997970C51812dc3A010C7d01b50e0d17dc79C8, 0x3C44CdDdB6a900fa2b585dd299e03d12FA4293BC]"
      ],
      "transaction": {
        "from": "0xaa4c60b784e2b3e485035399bf1b1abded66a60f",
        "to": "0x5482437be3b8600b238ddae9433ea6407919457c",
        "gas": "0x20d24",
        "value": "0x0",
        "input": "0x4e7602d30000000000000000000000000000000000000000000000000000000000000020000000000000000000000000000000000000000000000000000000000000000200000000000000000000000070997970c51812dc3a010c7d01b50e0d17dc79c80000000000000000000000003c44cdddb6a900fa2b585dd299e03d12fa4293bc",
        "nonce": "0x1b",
        "chainId": "0xaa36a7"
      },
      "additionalContracts": [],
      "isFixedGasLimit": false
    },
    {
      "hash": "0x82fe33d3d4c69c9d3cd3ace7ffb11dec7b13a948dee37738a0ce317fba8a4dbf",
      "transactionType": "CALL",
      "contractName": null,
      "contractAddress": "0x5482437be3b8600b238ddae9433ea6407919457c",
      "function": "swap(address,uint256)",
      "arguments": [
        "0xF1896C4d0b81f41Df70A722A1841b8a0789745D2",
        "2000000000000000000"
      ],
      "transaction": {
        "from": "0xaa4c60b784e2b3e485035399bf1b1abded66a60f",
        "to": "0x5482437be3b8600b238ddae9433ea6407919457c",
        "gas": "0x41d18",
        "value": "0x0",
        "input": "0xd004f0f7000000000000000000000000f1896c4d0b81f41df70a722a1841b8a0789745d20000000000000000000000000000000000000000000000001bc16d674ec80000",
        "nonce": "0x1c",
        "chainId": "0xaa36a7"
      },
      "additionalContracts": [],
      "isFixedGasLimit": false
    }
  ],
  "receipts": [
    {
      "status": "0x1",
      "cumulativeGasUsed": "0x1c9065c",
      "logs": [
        {
          "address": "0xf1896c4d0b81f41df70a722a1841b8a0789745d2",
          "topics": [
            "0x8c5be1e5ebec7d5bd14f71427d1e84f3dd0314c0f7b2291e5b200ac8c7c3b925",
            "0x000000000000000000000000aa4c60b784e2b3e485035399bf1b1abded66a60f",
            "0x0000000000000000000000005482437be3b8600b238ddae9433ea6407919457c"
          ],
          "data": "0x0000000000000000000000000000000000000000000000001bc16d674ec80000",
          "blockHash": "0x8afedd721875cf55daa501b356e2d33144b1ba6bdf9130914ef37a1a91c71a08",
          "blockNumber": "0x5ce157",
          "transactionHash": "0x47a76812f2ef8a1e82761666b78e95f408f4e5f3971a9e1c8db905ea8ceaa396",
          "transactionIndex": "0x55",
          "logIndex": "0xff",
          "removed": false
        }
      ],
      "logsBloom": "0x00000000000000000000000000000000000000000000000000000000000000000000000000000000000000100000000000000020000000000000000000200000000000000000000000000000000000000000000000000000000000000000000000000000000000000000000000000000000000000020000000000000000000000000000000000000001000000000000000000000000000000000000000000000020000020000000000000000000000000000000000010000000000008000000000000000000000000000000040000000000000000000000000000000000000000010000000000000000000000000008000000000000000000000000000000000",
      "type": "0x2",
      "transactionHash": "0x47a76812f2ef8a1e82761666b78e95f408f4e5f3971a9e1c8db905ea8ceaa396",
      "transactionIndex": "0x55",
      "blockHash": "0x8afedd721875cf55daa501b356e2d33144b1ba6bdf9130914ef37a1a91c71a08",
      "blockNumber": "0x5ce157",
      "gasUsed": "0xb523",
      "effectiveGasPrice": "0x5dc5fca49",
      "from": "0xaa4c60b784e2b3e485035399bf1b1abded66a60f",
      "to": "0xf1896c4d0b81f41df70a722a1841b8a0789745d2",
      "contractAddress": null
    },
    {
      "status": "0x1",
      "cumulativeGasUsed": "0x119f994",
      "logs": [
        {
          "address": "0xf1896c4d0b81f41df70a722a1841b8a0789745d2",
          "topics": [
            "0x8c5be1e5ebec7d5bd14f71427d1e84f3dd0314c0f7b2291e5b200ac8c7c3b925",
            "0x000000000000000000000000aa4c60b784e2b3e485035399bf1b1abded66a60f",
            "0x00000000000000000000000064678314e79781c33a4f9c347d2da58b31866875"
          ],
          "data": "0x0000000000000000000000000000000000000000000000001bc16d674ec80000",
          "blockHash": "0xe830f81616e26e9516ef1b798bd3da187fcc5aad2415b00ade19ac6b2c09c291",
          "blockNumber": "0x5ce158",
          "transactionHash": "0xc8f70f0200a991890b9e415c91782f6b1ea4a77f73ee1f96834eff3b6728dc26",
          "transactionIndex": "0x7c",
          "logIndex": "0x11e",
          "removed": false
        }
      ],
      "logsBloom": "0x00000000000000000000000000000000000000000000000000000000000000000000000000000000000000100000000000000020000000000000000000280020000000000000000000000000000000000002000000000000000000000000000000000000000000000000000000000000000000000020000000000000000000000000000000000000001000000000000000000000000000000000000000000000020000020000000000000000000000000000000000000000000000008000000000000000000000000000000000000000000000000000000000000000000000000010000000000000000000000000000000000000000000000000000000000000",
      "type": "0x2",
      "transactionHash": "0xc8f70f0200a991890b9e415c91782f6b1ea4a77f73ee1f96834eff3b6728dc26",
      "transactionIndex": "0x7c",
      "blockHash": "0xe830f81616e26e9516ef1b798bd3da187fcc5aad2415b00ade19ac6b2c09c291",
      "blockNumber": "0x5ce158",
      "gasUsed": "0xb523",
      "effectiveGasPrice": "0x68d6baa67",
      "from": "0xaa4c60b784e2b3e485035399bf1b1abded66a60f",
      "to": "0xf1896c4d0b81f41df70a722a1841b8a0789745d2",
      "contractAddress": null
    },
    {
      "status": "0x1",
      "cumulativeGasUsed": "0x11b60a7",
      "logs": [],
      "logsBloom": "0x00000000000000000000000000000000000000000000000000000000000000000000000000000000000000000000000000000000000000000000000000000000000000000000000000000000000000000000000000000000000000000000000000000000000000000000000000000000000000000000000000000000000000000000000000000000000000000000000000000000000000000000000000000000000000000000000000000000000000000000000000000000000000000000000000000000000000000000000000000000000000000000000000000000000000000000000000000000000000000000000000000000000000000000000000000000",
      "type": "0x2",
      "transactionHash": "0xd7f002ef1df82fc8f3ab9039707fd63e3d5096c19fc009d44beac79c086397ce",
      "transactionIndex": "0x7d",
      "blockHash": "0xe830f81616e26e9516ef1b798bd3da187fcc5aad2415b00ade19ac6b2c09c291",
      "blockNumber": "0x5ce158",
      "gasUsed": "0x16713",
      "effectiveGasPrice": "0x68d6baa67",
      "from": "0xaa4c60b784e2b3e485035399bf1b1abded66a60f",
      "to": "0x5482437be3b8600b238ddae9433ea6407919457c",
      "contractAddress": null
    },
    {
      "status": "0x1",
      "cumulativeGasUsed": "0x11e5b14",
      "logs": [
        {
          "address": "0xf1896c4d0b81f41df70a722a1841b8a0789745d2",
          "topics": [
            "0xddf252ad1be2c89b69c2b068fc378daa952ba7f163c4a11628f55a4df523b3ef",
            "0x000000000000000000000000aa4c60b784e2b3e485035399bf1b1abded66a60f",
            "0x0000000000000000000000005482437be3b8600b238ddae9433ea6407919457c"
          ],
          "data": "0x0000000000000000000000000000000000000000000000001bc16d674ec80000",
          "blockHash": "0xe830f81616e26e9516ef1b798bd3da187fcc5aad2415b00ade19ac6b2c09c291",
          "blockNumber": "0x5ce158",
          "transactionHash": "0x82fe33d3d4c69c9d3cd3ace7ffb11dec7b13a948dee37738a0ce317fba8a4dbf",
          "transactionIndex": "0x7e",
          "logIndex": "0x11f",
          "removed": false
        },
        {
          "address": "0xf1896c4d0b81f41df70a722a1841b8a0789745d2",
          "topics": [
            "0x8c5be1e5ebec7d5bd14f71427d1e84f3dd0314c0f7b2291e5b200ac8c7c3b925",
            "0x0000000000000000000000005482437be3b8600b238ddae9433ea6407919457c",
            "0x00000000000000000000000064678314e79781c33a4f9c347d2da58b31866875"
          ],
          "data": "0x0000000000000000000000000000000000000000000000001bc16d674ec80000",
          "blockHash": "0xe830f81616e26e9516ef1b798bd3da187fcc5aad2415b00ade19ac6b2c09c291",
          "blockNumber": "0x5ce158",
          "transactionHash": "0x82fe33d3d4c69c9d3cd3ace7ffb11dec7b13a948dee37738a0ce317fba8a4dbf",
          "transactionIndex": "0x7e",
          "logIndex": "0x120",
          "removed": false
        },
        {
          "address": "0xf1896c4d0b81f41df70a722a1841b8a0789745d2",
          "topics": [
            "0xddf252ad1be2c89b69c2b068fc378daa952ba7f163c4a11628f55a4df523b3ef",
            "0x0000000000000000000000005482437be3b8600b238ddae9433ea6407919457c",
            "0x00000000000000000000000064678314e79781c33a4f9c347d2da58b31866875"
          ],
          "data": "0x0000000000000000000000000000000000000000000000001bc16d674ec80000",
          "blockHash": "0xe830f81616e26e9516ef1b798bd3da187fcc5aad2415b00ade19ac6b2c09c291",
          "blockNumber": "0x5ce158",
          "transactionHash": "0x82fe33d3d4c69c9d3cd3ace7ffb11dec7b13a948dee37738a0ce317fba8a4dbf",
          "transactionIndex": "0x7e",
          "logIndex": "0x121",
          "removed": false
        },
        {
          "address": "0xd6c223dde25e6ff9cede6def54af896841644291",
          "topics": [
            "0xddf252ad1be2c89b69c2b068fc378daa952ba7f163c4a11628f55a4df523b3ef",
            "0x00000000000000000000000064678314e79781c33a4f9c347d2da58b31866875",
            "0x0000000000000000000000005482437be3b8600b238ddae9433ea6407919457c"
          ],
          "data": "0x0000000000000000000000000000000000000000000000001bc16d674ec80000",
          "blockHash": "0xe830f81616e26e9516ef1b798bd3da187fcc5aad2415b00ade19ac6b2c09c291",
          "blockNumber": "0x5ce158",
          "transactionHash": "0x82fe33d3d4c69c9d3cd3ace7ffb11dec7b13a948dee37738a0ce317fba8a4dbf",
          "transactionIndex": "0x7e",
          "logIndex": "0x122",
          "removed": false
        },
        {
          "address": "0xd6c223dde25e6ff9cede6def54af896841644291",
          "topics": [
            "0xddf252ad1be2c89b69c2b068fc378daa952ba7f163c4a11628f55a4df523b3ef",
            "0x0000000000000000000000005482437be3b8600b238ddae9433ea6407919457c",
            "0x000000000000000000000000aa4c60b784e2b3e485035399bf1b1abded66a60f"
          ],
          "data": "0x00000000000000000000000000000000000000000000000000d529ae9e860000",
          "blockHash": "0xe830f81616e26e9516ef1b798bd3da187fcc5aad2415b00ade19ac6b2c09c291",
          "blockNumber": "0x5ce158",
          "transactionHash": "0x82fe33d3d4c69c9d3cd3ace7ffb11dec7b13a948dee37738a0ce317fba8a4dbf",
          "transactionIndex": "0x7e",
          "logIndex": "0x123",
          "removed": false
        },
        {
          "address": "0x5482437be3b8600b238ddae9433ea6407919457c",
          "topics": [
            "0x36b782c7d70355ab87746a23d6c2e3c2a98d98133973562b1de701f34e2ce944",
            "0x000000000000000000000000aa4c60b784e2b3e485035399bf1b1abded66a60f"
          ],
          "data": "0x00000000000000000000000000000000000000000000000000d529ae9e860000",
          "blockHash": "0xe830f81616e26e9516ef1b798bd3da187fcc5aad2415b00ade19ac6b2c09c291",
          "blockNumber": "0x5ce158",
          "transactionHash": "0x82fe33d3d4c69c9d3cd3ace7ffb11dec7b13a948dee37738a0ce317fba8a4dbf",
          "transactionIndex": "0x7e",
          "logIndex": "0x124",
          "removed": false
        },
        {
          "address": "0xd6c223dde25e6ff9cede6def54af896841644291",
          "topics": [
            "0xddf252ad1be2c89b69c2b068fc378daa952ba7f163c4a11628f55a4df523b3ef",
            "0x0000000000000000000000005482437be3b8600b238ddae9433ea6407919457c",
            "0x00000000000000000000000070997970c51812dc3a010c7d01b50e0d17dc79c8"
          ],
          "data": "0x0000000000000000000000000000000000000000000000000d7621dc58210000",
          "blockHash": "0xe830f81616e26e9516ef1b798bd3da187fcc5aad2415b00ade19ac6b2c09c291",
          "blockNumber": "0x5ce158",
          "transactionHash": "0x82fe33d3d4c69c9d3cd3ace7ffb11dec7b13a948dee37738a0ce317fba8a4dbf",
          "transactionIndex": "0x7e",
          "logIndex": "0x125",
          "removed": false
        },
        {
          "address": "0x5482437be3b8600b238ddae9433ea6407919457c",
          "topics": [
            "0x36b782c7d70355ab87746a23d6c2e3c2a98d98133973562b1de701f34e2ce944",
            "0x00000000000000000000000070997970c51812dc3a010c7d01b50e0d17dc79c8"
          ],
          "data": "0x0000000000000000000000000000000000000000000000000d7621dc58210000",
          "blockHash": "0xe830f81616e26e9516ef1b798bd3da187fcc5aad2415b00ade19ac6b2c09c291",
          "blockNumber": "0x5ce158",
          "transactionHash": "0x82fe33d3d4c69c9d3cd3ace7ffb11dec7b13a948dee37738a0ce317fba8a4dbf",
          "transactionIndex": "0x7e",
          "logIndex": "0x126",
          "removed": false
        },
        {
          "address": "0xd6c223dde25e6ff9cede6def54af896841644291",
          "topics": [
            "0xddf252ad1be2c89b69c2b068fc378daa952ba7f163c4a11628f55a4df523b3ef",
            "0x0000000000000000000000005482437be3b8600b238ddae9433ea6407919457c",
            "0x0000000000000000000000003c44cdddb6a900fa2b585dd299e03d12fa4293bc"
          ],
          "data": "0x0000000000000000000000000000000000000000000000000d7621dc58210000",
          "blockHash": "0xe830f81616e26e9516ef1b798bd3da187fcc5aad2415b00ade19ac6b2c09c291",
          "blockNumber": "0x5ce158",
          "transactionHash": "0x82fe33d3d4c69c9d3cd3ace7ffb11dec7b13a948dee37738a0ce317fba8a4dbf",
          "transactionIndex": "0x7e",
          "logIndex": "0x127",
          "removed": false
        },
        {
          "address": "0x5482437be3b8600b238ddae9433ea6407919457c",
          "topics": [
            "0x36b782c7d70355ab87746a23d6c2e3c2a98d98133973562b1de701f34e2ce944",
            "0x0000000000000000000000003c44cdddb6a900fa2b585dd299e03d12fa4293bc"
          ],
          "data": "0x0000000000000000000000000000000000000000000000000d7621dc58210000",
          "blockHash": "0xe830f81616e26e9516ef1b798bd3da187fcc5aad2415b00ade19ac6b2c09c291",
          "blockNumber": "0x5ce158",
          "transactionHash": "0x82fe33d3d4c69c9d3cd3ace7ffb11dec7b13a948dee37738a0ce317fba8a4dbf",
          "transactionIndex": "0x7e",
          "logIndex": "0x128",
          "removed": false
        }
      ],
      "logsBloom": "0x00000000000000000002000000000000000000000000000000000000000000000000000000000000000000100000000000000020000000000000000000380020000000004000000000000008000000000002000000000000000000400040000000000800000000000000000000000000000800000820000000000010000000000000000000000000001000000000000000000000000000000000000000000000020000820000200000000000000000000000000000010000008000008000800000000002000000000800000040000000000000000000000000000000000000000010000000000000000000040000008001000000000000000000000000000000",
      "type": "0x2",
      "transactionHash": "0x82fe33d3d4c69c9d3cd3ace7ffb11dec7b13a948dee37738a0ce317fba8a4dbf",
      "transactionIndex": "0x7e",
      "blockHash": "0xe830f81616e26e9516ef1b798bd3da187fcc5aad2415b00ade19ac6b2c09c291",
      "blockNumber": "0x5ce158",
      "gasUsed": "0x2fa6d",
      "effectiveGasPrice": "0x68d6baa67",
      "from": "0xaa4c60b784e2b3e485035399bf1b1abded66a60f",
      "to": "0x5482437be3b8600b238ddae9433ea6407919457c",
      "contractAddress": null
    }
  ],
  "libraries": [],
  "pending": [],
  "returns": {},
  "timestamp": 1718127425,
  "chain": 11155111,
  "commit": "65eb06f"
}